:020000040800F2
:10000000F813002001010008BF1600085312000871
:10001000BD160008E70100086B330008000000006F
:10002000000000000000000000000000111E000899
:1000300065020008000000005B1D0008131E000898
:100040001B0100081B0100081B0100081B01000820
:100050001B0100081B0100081B0100081B01000810
:100060001B0100081B0100081B0100081B01000800
:100070001B0100081B0100081B0100081B010008F0
:100080001B0100081B0100081B0100081B010008E0
:10009000F53200081B0100081B0100081B010008C5
:1000A0001B0100081B0100081B0100081B010008C0
:1000B000291F00081B0100081B0100081B01000884
:1000C0001B0100081B0100081B0100081B010008A0
:1000D0001B0100081B0100081B0100081B01000890
:1000E0001B0100081B0100081B010008DFF80CD0F1
:1000F00000F03CF800480047AD330008F81300203A
:100100000648804706480047FEE7FEE7FEE7FEE7B1
:10011000FEE7FEE7FEE7FEE7FEE7FEE7E11E00087A
:10012000ED00000840EA01039B0703D009E008C97D
:10013000121F08C0042AFAD203E011F8013B00F8AC
:10014000013B521EF9D27047D2B201E000F8012BF8
:10015000491EFBD270470022F6E710B513460A4647
:1001600004461946FFF7F0FF204610BD064C074D28
:1001700006E0E06840F0010394E807009847103477
:10018000AC42F6D3FFF7B6FFF83300081834000886
:1001900070B58C1810F8015B15F0070301D110F849
:1001A000013B2A1106D110F8012B03E010F8016B76
:1001B00001F8016B5B1EF9D12B0705D40023521EF9
:1001C0000DD401F8013BFAE710F8013BCB1A921C61
:1001D00003E013F8015B01F8015B521EF9D5A1425F
:1001E000D8D3002070BDFEE7002070470020704784
:1001F00010B500220549064801F0FAFF03490448FA
:10020000403901F0EFFF002010BD0000B40B0020CA
:100210002402002010B50C460146054801F0E2FF1B
:10022000034801F0C3FF034920780870002010BD87
:100230002402002000000020094A10B5D2F8B8229C
:10024000D2F814220AB1012010BD0A460146044822
:1002500001F0CEFFBDE81040014802F027B80000D1
:10026000240200207047000001B5074807490068D4
:10027000B0FBF1F0009948430090411E009101D37A
:100280000846FAE708BD00007400002040548900C9
:100290007047000070B5044600F010F90546601C78
:1002A00002D004480078044400F008F9401BA04242
:1002B000FAD370BD680000202DE9F84FDFF8B8913F
:1002C000002409F1040A0AF1040B23460F270BF15D
:1002D000040EC9E00125A5402A40AA427DD1674EFF
:1002E000D1F804C0ACEB0608B44532D014DCBCF144
:1002F000030F3AD009DCBCF1000F2AD0BCF1010F8A
:100300001CD0BCF1020F31D11DE0BCF1110F17D090
:10031000BCF1120F2AD119E0B8F5881F19D006DCFC
:10032000B8F5803F15D0B8F5801F1FD111E0B8F5A2
:10033000001F0ED0B8F5041F18D10AE0CB6815E0F5
:10034000CB681B1D12E0CB6808330FE0CB680C3381
:100350000CE08B682BB1012B4FF0080303D04561F3
:1003600004E0042302E0056100E00023FF2A01D835
:10037000064601E000F104064FEA840501D9A5F123
:100380002005D6F8008007FA05FC28EA0C0803FAD5
:1003900005F548EA0508C6F800804D68ED0062D50D
:1003A000374DAE6946F00106AE61AD6924F0030633
:1003B00005F001050095334D06EB050CDCF80850FF
:1003C000A607360F07FA06F825EA0805DFF8B88011
:1003D000404503D14FF0000817E044E0DFF8AC805F
:1003E000404502D14FF001080FE0DFF8A4804045FE
:1003F00002D14FF0020808E0DFF89880404502D1B2
:100400004FF0030801E04FF0040808FA06F848EA44
:100410000508CCF808804D68D9F80060ED034D461A
:1004200001D5164300E096432E604D68DAF800606F
:10043000AD03554601D5164300E096432E604D6846
:10044000DBF80060ED025D4601D5164300E09643FF
:100450002E604D68DEF80060AD02754601D516438A
:1004600000E096432E60641C0D682A46E5407FF448
:1004700031AFBDE8F88F000000040140000011100A
:10048000001002400000014000080140000C014043
:1004900000100140001401408068084000D0012095
:1004A0007047C2680A4201D04161704701617047DC
:1004B0000AB1016170470904FBE700000148806848
:1004C00070470000680000200248816802781144EB
:1004D0008160704768000020074810B5016841F04E
:1004E00010010160032000F075F8002000F006F80C
:1004F00000F024F8002010BD0020024070B50D4D22
:1005000004464FF47A712878B1FBF0F00A49096883
:10051000B1FBF0F000F00BFD48B9102C07D200221F
:100520002146501E00F036F800206C6070BD01209E
:1005300070BD000068000020740000200C4808B561
:10054000816941F001018161816901F0010100913E
:10055000C16941F08051C161C06900F080500090D4
:100560000448416821F0E06141F00071416008BD3C
:100570000010024000000140002809DB00F01F02CB
:10058000012191404009800000F1E020C0F80011F5
:1005900070470000F0B40E4B1B680C46C3F30223F7
:1005A000C3F10705042D00D90425191D072901D21F
:1005B000002300E0DB1E012606FA05F1491E21405A
:1005C00099409E40761E16403143F0BC02F0CEBEEC
:1005D0000CED00E0064900F0070208684FF6FF0343
:1005E000184040EA0220034A1043086070470000A8
:1005F0000CED00E00000FA0510B50C0605D501F081
:10060000070100EB4110283003E000EB411000F53A
:10061000947099B232B1012202730181190C4181A7
:10062000002010BD00220273C180F9E7704700EB83
:100630004112D0F86802D26B01F0E7BF00EB411223
:10064000D0F86802D2F83C2102F042B870B50446F6
:100650000B0601F0070004EB40114FF001024FF0D0
:10066000000503D581F82920283103E081F82951BC
:1006700001F59471087094F82802012808D084F8D4
:100680002822206802F069FC84F82852002070BDFE
:10069000022070BD70B5044601F00F006268904200
:1006A00001D9012070BD0B0601F0070004EB4011D9
:1006B0004FF001024FF0000503D581F829202831C1
:1006C00003E081F8295101F594718D70087094F858
:1006D0002802012808D084F82822206802F0E0FCD3
:1006E00084F82852002070BD022070BD01F007017F
:1006F00000EB4110D0F8440170472DE9F041044669
:100700000F0601F0070004EB40114FF001064FF017
:10071000000503D581F82960283103E081F82951CB
:1007200001F5947108700A61CB704A7802B1C881F2
:10073000022B00D10D7194F82802012809D084F809
:100740002862206802F0D4FA284684F82852BDE8CE
:10075000F0810220FBE770B50C4601F0070500EBC5
:100760004511C1E94F230022C1F8442181F8292114
:1007700081F8285101F594716207006802F0E5FCE8
:10078000002070BD70B504460D4601F00700616899
:10079000884201D9012070BD29064FF000064FF0B4
:1007A000010205D504EB401181F82920283105E02C
:1007B00004EB451181F8296101F594718A70087084
:1007C00094F82802012807D084F82822206802F033
:1007D000A3FC680702D006E0022070BD04F50C718E
:1007E000206802F05BFC84F82862002070BD70B5C0
:1007F0000C4601F0070500EB4511C1E90F2300226B
:100800004A64012281F8292001F8285F6207006804
:1008100002F09BFC002070BD10B50446006802F099
:100820006FFD000402D5204601F036F9206802F081
:1008300067FD40050CD5206830F8441F21F4806125
:100840000180204600F0FCF80021204600F013F95A
:10085000206802F055FD400405D5206830F8441F9B
:1008600021F480410180206802F04AFD800405D512
:10087000206830F8441F21F400510180206802F004
:100880003FFDC00414D5206830F8401F21F004015A
:100890000180206830F8401F21F0080101802046C7
:1008A00000F0E1F8206830F8441F21F48051018005
:1008B000206802F025FD00051FD5206830F8401F94
:1008C00041F008010180206830F8441F21F40061E4
:1008D0000180206830F8401F41F004010180206849
:1008E00002F00EFDC00405D5206830F8441F21F445
:1008F00080510180204600F0F3F8206802F000FDEE
:10090000800508D5206830F8441F21F4007101806B
:10091000204600F0ACF8206802F0F2FCC00505D5D6
:10092000206830F8441F21F48071018010BD000060
:100930002DE9F04186B0040004D094F82902002586
:1009400020B108E0012006B0BDE8F08184F828520B
:10095000204600F057F8032084F82902206802F0AE
:1009600096FB04F11001142288466846FFF7DAFB73
:1009700094E80F0002F0EFFA0227B0BB00212068D4
:1009800002F0D8FC002001260DE000BF04EB40116E
:1009900081F8296001F8280FC881CD700D614D6183
:1009A000401CC0B28D6161688142EFD800200FE029
:1009B00004EB401181F8295181F8280181F82B516D
:1009C000C1F83851C1F83C51401CC0B2C1F8405187
:1009D00061688142ECD8142241466846FFF7A2FBC9
:1009E00094E80F0002F044FB10B184F82972A9E7E3
:1009F00084F8245084F82962206802F037FB002034
:100A0000A1E7000008B500680B49884212D10B48E5
:100A1000C16941F40001C161C069002200F4000015
:100A2000009011461420FFF7B5FDBDE808401420E2
:100A3000FFF7A2BD08BD0000005C004000100240AE
:100A400070B5044680680125022801D0FFF720FC1C
:100A50002946D4F8680201F022FFD4F86802BDE804
:100A6000704001F0DEBED0F8680201F002BFD0F89D
:100A7000680201F008BF10B5044690F8280201286A
:100A80000BD0012084F8280284F82410206802F09A
:100A900053FC002084F8280210BD022010BDD0F8BD
:100AA000682200F50C71104601F005BF10B5044630
:100AB00090F82802012810D0012084F8280201466D
:100AC0002046FFF7B3FD206802F0CEFA206802F05E
:100AD0000AFC002084F8280210BD022010BD00008E
:100AE00010B50446D0F8680201F024FFA069002880
:100AF00004D00348016841F00601016010BD000008
:100B000010ED00E070B5040005D00025A56294F852
:100B1000510010B106E0012070BD84F8505020460D
:100B200000F02EF8022084F851002068016821F0BE
:100B300040010160D4E901010843D4E903121143E3
:100B4000084361690843218B01F400710843E1699E
:100B50000843216A0843A16A084321680860A06924
:100B6000042101EA1040216848602068C16921F42D
:100B70000061C1616565012084F85100002070BDED
:100B800030B585B000240094019402940394006869
:100B90001449884223D11448816941F4805181610C
:100BA000816901F480510491816941F004018161FE
:100BB00080690E4D00F004000490A02000900220F7
:100BC00001900320039069462846FFF775FB4020FB
:100BD000CDE90004694628460294FFF76DFB05B095
:100BE00030BD00000030014000100240000801400C
:100BF0002DE9F84F044690F8500000271D46164690
:100C0000894601280DD04FF0010B84F850B0FFF752
:100C100055FC804694F85100BA46012804D00227BA
:100C20008EE00220BDE8F88FB9F1000F7DD0002ED4
:100C30007BD0032084F85100C4F854A0C4F830904D
:100C4000A686E686C4F838A0A4F83CA0A4F83EA086
:100C5000C4F844A0C4F840A0A068B0F5004F04D187
:100C60002068016841F480410160206801684906FC
:100C700003D4016841F040010160E068B0F5006F05
:100C8000606803D030B3012E24D040E008B1012EBB
:100C90001CD1206B21680088C86006E0206881684C
:100CA000890709D5216B0988C160206B801C2063EE
:100CB000E08E401EE08609E0FFF700FCA0EB080094
:100CC000A84202D3681C01D031E07DB3E08E002839
:100CD000E4D11FE0206B21680078087306E02068EB
:100CE0008168890709D5216B09780173206B401C45
:100CF0002063E08E401EE08609E0FFF7DFFBA0EBFB
:100D00000800A84202D3681C01D010E075B1E08E43
:100D10000028E4D142462946204601F01FF808B1D8
:100D200020206065A06820B107E008E0FFE7032706
:100D300006E02068C16880680090606D00B10127FE
:100D400084F851B084F850A038466BE72DE9F84F8D
:100D5000044690F8500000270A9E1D4692468B4696
:100D60004FF0010901280ED0012084F85000FFF750
:100D7000A5FB804694F85100616801280CD0B1F5BC
:100D8000827F07D102E00220BDE8F88FA16809B98F
:100D9000042801D00227C2E0BBF1000F27D0BAF12E
:100DA000000F24D01DB394F85100042802D0052070
:100DB00084F8510000206065C4F838A0E587A58755
:100DC000C4F830B0E586A5862064606420680168B8
:100DD000490603D4016841F040010160E068B0F5C4
:100DE000006F606805D0E8B3012D46D07FE0012791
:100DF00095E008B1012D39D1206B21680088C860C9
:100E0000206B801C2063E08E401EE0862EE0206870
:100E1000816889070FD5E18E69B1B9F1010F0AD157
:100E2000216B0988C160206B801C2063E08E401E0E
:100E3000E0864FF0000920688168C9070CD0E18F77
:100E400051B1C068A16B0880A06B801CA063E08FCB
:100E5000401EE0874FF00109FFF730FBA0EB0800D0
:100E6000B04200E009E001D3701C50D1E08E0028B0
:100E7000CDD1E08F0028CAD13FE0206B21680078F7
:100E80000873206B401C2063E08E401EE0862EE03D
:100E90002068816889070FD5E18E69B1B9F1010F2A
:100EA0000AD1216B09780173206B401C2063E08E0E
:100EB000401EE0864FF0000920688168C9070CD009
:100EC000E18F51B1C068A16B0870A06B401CA0639A
:100ED000E08F401EE0874FF00109FFF7EFFAA0EB2B
:100EE0000800B04202D3701C01D010E07EB1E08E49
:100EF0000028CDD1E08F0028CAD142463146204695
:100F000000F02CFF28B101272020606507E00327AF
:100F100005E0A06818B92068C168806800900120C9
:100F200084F85100002084F8500038462CE710B5B2
:100F3000401EB0F1807F01D3012010BD4FF0E024AE
:100F400060610F21601702F011FA0020A0610720F4
:100F50002061002010BD7047704770B590F83C20AC
:100F6000012A19D0012400F83C4F0222427050F8A7
:100F70003C3C5A689D6822F070060A684968324312
:100F800025F0800529435A6050F83C2C916044704C
:100F900000210170084670BD022070BD10B504002C
:100FA00003D094F83D0010B107E0012010BD0020EF
:100FB00084F83C00204600F00DF8022084F83D0043
:100FC000211D206800F0B6FF012084F83D000020BC
:100FD00010BD000008B50068B0F1804F12D10A487A
:100FE000C16941F00101C161C069002200F0010046
:100FF000009011461C20FFF7CDFABDE808401C20E8
:10100000FFF7BABA08BD00000010024070B50446F0
:1010100090F83C00012817D0012584F83C500220AC
:1010200084F83D002068826822F0770222F47F4233
:1010300082600868502830D00DDC20284DD005DCB7
:1010400098B310283BD148E0022070BD302844D02E
:10105000402834D139E0602828D0702806D0B0F577
:10106000805F2CD0B0F5005F29D10AE0CB68D1E9D0
:101070000121206800F094FF2068816841F0770129
:1010800009E0CB68D1E90121206800F089FF2068E0
:10109000816841F48041816011E0CA684968206834
:1010A00000F090FF5021206807E016E0CA68496808
:1010B000206800F098FF6021206800F07BFF84F832
:1010C0003D50002084F83C0070BDCA684968206823
:1010D00000F078FF40212068EFE7226801461046C3
:1010E000EBE7704770B50446006801694FF00005F2
:1010F000C943890715D4C168C943890711D4E91EBA
:10110000016101202077206880698007204602D095
:10111000FFF7E7FF04E000F098F8204600F096F8AB
:10112000257720680169C943490717D4C168C943B5
:10113000490713D46FF00401016102202077206871
:10114000806910F4407F204602D0FFF7CAFF04E018
:1011500000F07BF8204600F079F8257720680169D7
:10116000C943090716D4C168C943090712D46FF0EF
:1011700008010161042020772068C06980072046AB
:1011800002D0FFF7AEFF04E000F05FF8204600F069
:101190005DF8257720680169C943C90617D4C1687D
:1011A000C943C90613D46FF01001016108202077EC
:1011B0002068C06910F4407F204602D0FFF791FFFD
:1011C00004E000F042F8204600F040F8257720685F
:1011D0000169C943C90708D1C168C943C90704D116
:1011E000891E0161204600F032F820680169C94378
:1011F000090609D4C168C943090605D46FF0800106
:1012000001612046FFF7A7FE20680169C94349062E
:1012100009D4C168C943490605D46FF04001016192
:10122000204600F015F820680169C94389060BD4EF
:10123000C168C943890607D46FF0200101612046C7
:10124000BDE87040FFF788BE70BD704770477047BB
:101250007047FEE7F0B500230A24302537261F46E5
:1012600011E000BFB4EB107F02D905EB107C01E068
:1012700006EB107C01F813C001EB430C00015B1C72
:101280008CF80170DBB29342ECD3F0BD044908B591
:101290008A6902438A6189690140009108BD0000A2
:1012A00000100240F0B50A68C2F30F2595FAA5F2C6
:1012B000B2FA82F369E001229A402A4264D0082BF4
:1012C00003D240F201129A4006E0A3F108024FF067
:1012D0000114944044F0806292FAA2F700EB126489
:1012E000B7FA87F74FEA870C0F27266807FA0CF73B
:1012F000BE4392FAA2F7D1F804E0B7FA87F7BF002D
:101300000EFA07FE46EA0E0626600E69C7684FEA27
:10131000122C9CFAACFCBCFA8CFC27EA122706FAC9
:101320000CF63743C7604E68012E01D0092E2BD131
:1013300092FAA2F7B7FA87F74FEA870C032707FA62
:101340000CF72668D1F808E0BE4392FAA2F7B7FA84
:1013500087F7BF000EFA07FE92FAA2FC46EA0E06D5
:10136000BCFA8CFC4FEA8C0E4FF0040C26600CFA91
:101370000EFC92FAA2F2B2FA82F2CF68920026EA4A
:101380000C0697403E4326605B1C35FA03F292D16F
:101390000020F0BD18B54FF47A7100914168002229
:1013A000C1F340114FF0E0230BE01969C1F3004194
:1013B00011B10099491E00914168009CC1F3401190
:1013C0003CB10029F1D0416841F010014160104664
:1013D00018BD0122F7E718B54FF47A710091416802
:1013E000002221F01001416041684FF0E023C1F379
:1013F00040110BE01969C1F3004111B10099491E78
:1014000000914168009CC1F340111CB10029F1D04A
:10141000104618BD0122FBE770B50D4604460126B3
:1014200000F036F801282ED02046FFF7B3FF012840
:1014300029D0606820F002006060606820F004003D
:101440006060606820F001006060686820B10F484B
:10145000016821F0010101600C4869683038C26AF6
:1014600022F460720A43C2622868A16821F00F0169
:1014700041EA1041A160E16860F30F01E16020469C
:10148000FFF7A9FF0026304670BD0000306C004019
:1014900018B54FF47A7100914168002221F00801DB
:1014A000416041684FF0E023C1F3C0010BE01969CE
:1014B000C1F3004111B10099491E00914168009C9F
:1014C000C1F3C0011CB10029F1D1104618BD0122A1
:1014D000FBE700000149086070470000740000202D
:1014E0002DE9F04186B014216846FEF734FE102045
:1014F000FFF7CCFE2020FFF7C9FE0420FFF7C6FE51
:10150000144813494FF400524261134C182241F61B
:10151000180862610125022600278DE8E20069466D
:10152000FFF7C0FE40F2044000900420019069469D
:101530002046FFF7B7FE01AACDF8008082E8E00060
:1015400069462046FFF7AEFE06B0BDE8F081000018
:101550002000200400100140000801403EB500209A
:1015600001901248016841F4807101601048C1691E
:1015700041F00061C161C16901F000610291016A3D
:1015800041F4004101620B4C4FF0FF3569462046A3
:101590000095FFF741FFA06820F00F0040EA1540DA
:1015A000A060E06865F30F00E0603EBD00700040A1
:1015B0000010024000280040104810B50E4901609C
:1015C0004FF48271416000218160C1604FF400726C
:1015D0000161C0E905122022C0E907214162816250
:1015E0000A21C162FFF78EFA002803D0BDE810403F
:1015F000FEF74EBE10BD0000003001408C010020FF
:1016000010B586B000241748009401940294039406
:1016100004944FF080410594016048F69F41C0E971
:1016200001144FF47A61C0E903148461FFF7B6FC3A
:1016300008B1FEF72DFE4FF480500090694609482E
:10164000FFF7E4FC08B1FEF723FE2020CDE90404F7
:1016500004A90448FFF781FC002801D0FEF718FE1A
:1016600006B010BDE401002010B500220F4910485B
:1016700000F0A4FF08B1FEF70BFE0E490C4801F084
:101680007FF908B1FEF704FE0B49094800F0A2FDFE
:1016900008B1FEF7FDFD064801F0C8F9002803D0A7
:1016A000BDE81040FEF7F4BD10BD000004000020AE
:1016B000240200205401002054000020FEE770475F
:1016C00010B5002000F0BAF840F00301002000F04F
:1016D0003DF9012208210648FEF7EAFE9620FEF7B2
:1016E000C3FD00F06BF8BDE8104000F087B80000C3
:1016F0000008014010B5044600F04AF8002000F050
:101700009DF820F0010040F00201002000F01EF9D9
:101710009620FEF7A9FD1E222146A02000F0E8F841
:10172000194C012208212046FEF7C2FE0F20FEF7C9
:101730009BFD002208212046FEF7BAFE0421204628
:10174000FEF7AAFE0128F9D0072000F077F88106FD
:1017500009D54FF400510D48FEF7A3FE20210720C4
:1017600000F0F4F807E0C00605D51021072000F0CE
:10177000EDF800F043F8082000F060F80446FFF7A9
:101780009FFF204610BD00000008014000100140EE
:1017900010B503220749102000F0FEF800220821AE
:1017A0000548FEF785FE00F009F8BDE8104000F09E
:1017B00025B80000640000200008014038B50CA0E6
:1017C0000C4C00680090002210212046FEF770FEAD
:1017D0004FF47A73012269460748FFF709FA01209E
:1017E000FEF742FD012210212046FEF761FE38BDC2
:1017F000E2000000000801408C01002038B50CA078
:101800000C4C00680090002210212046FEF750FE8C
:101810004FF47A73012269460748FFF7E9F901207E
:10182000FEF722FD012210212046FEF741FE38BDC1
:10183000E1000000000801408C01002031B584B0B7
:101840000020144D8DF80400024610212846FEF7B2
:101850002FFE4FF47A74012301AA04A90E480094C4
:10186000FFF774FA9DF81000072809D0FF208DF8C3
:101870000800012301AA02A907480094FFF766FAAD
:10188000012210212846FEF713FE9DF8040005B042
:1018900030BD0000000801408C01002038B511A0C7
:1018A000114C00680090002210212046FEF700FE37
:1018B0004FF47A752B46012269460C48FFF798F9D8
:1018C0000120FEF7D1FC73208DF800002B46012289
:1018D00069460648FFF78CF9012210212046FEF7E1
:1018E000E7FD38BD50000000000801408C010020D9
:1018F000F7B5144C16460F46002208212046FEF785
:10190000D7FD002210212046FEF7D2FD4FF47A7554
:101910002B46012269460C48FFF76AF90120FEF7C1
:10192000A3FC2B46324639460748FFF761F90122EE
:1019300010212046FEF7BCFD012208212046FEF7BB
:10194000B7FDFEBD000801408C01002073B5104CAE
:101950009DF80000002240F020008DF800001021CA
:101960002046FEF7A5FD4FF47A752B460122694605
:101970000848FFF73DF92B46012201A90548FFF76A
:1019800037F9012210212046FEF792FD7CBD0000B0
:10199000000801408C010020F7B5124C9DF80000B2
:1019A000164640F020000F468DF80000002210215E
:1019B0002046FEF77DFD4FF47A752B4601226946DD
:1019C0000948FFF715F90120FEF74EFC2B46324679
:1019D00039460548FFF70CF9012210212046FEF791
:1019E00067FDFEBD000801408C01002010B50022FB
:1019F00008212648FEF75CFD41F288342046FEF7B8
:101A000033FC0A210020FFF7A1FF2046FEF72CFC43
:101A100001210846FFF79AFF01210220FFF796FFF8
:101A200001210320FFF792FF5F210420FFF78EFFC3
:101A3000FFF734FF00211D20FFF788FF00211C2045
:101A4000FFF784FF70210720FFF780FF4C2105205E
:101A5000FFF77CFF06210846FFF778FF03220C49B9
:101A60001020FFF799FF032209490A20FFF794FF8E
:101A70001E211120FFF76AFFFFF722FEBDE810408C
:101A800000224FF400510348FEF712BD0008014048
:101A900064000020001001402DE9F05F044648F684
:101AA0000F7B4FF0020A4FF480684AE1B0F844100F
:101AB00011F00F0629D030F82670390479D530F8A6
:101AC000261040F68F72114041F0800120F8261058
:101AD00004EB461595F8340105F594750028206847
:101AE00068D0297830F8212052047DD5B0F85020F4
:101AF0000AEBC1010A4408EB4201415AC1F3090152
:101B00005FEA010971D02A89D2E0C9062DD4018883
:101B100001EA0B0141F400410180206804F128052D
:101B2000B0F850202B780AEBC3010A4408EB4201BD
:101B3000405AC0F309006064E16B0844E06300218F
:101B40002046FEF774FD94F824000028ADD0A86963
:101B50000028AAD194F82400216840F08000A1F860
:101B60004C00002084F82400EBE0018804F5947513
:101B70000A0520D5B0F850202B78062101EBC301CF
:101B80000A4408EB4201405A04F50C71C0F3090302
:101B9000EB61EA88206801F0B7FB2068018840F615
:101BA0008F72114041F0800101802046FEF777FFDF
:101BB000C7E0A2E058E0090455D5018840F68F72CD
:101BC000114041F0800101802168B1F850202B784C
:101BD000062000EBC300024408EB4200085A8305CC
:101BE0009B0DEB6110D001E053E065E0696959B1EC
:101BF000EA88206801F088FBE9696869084468613F
:101C000000212046FEF71AFD2068B0F85010084465
:101C1000296900F20C4051B13E2910D84A08C90781
:101C200000D0521C4FF6FF7101EA82210FE00188BB
:101C300021F4F8410180018841F4004107E04A099C
:101C4000C90600D1521E4FF4004141EA82210180B1
:101C5000206801884BF68F72114081F4405148F2A0
:101C60008002114301806CE0B0F850202B780621EF
:101C700001EBC3010A4408EB4201415AC1F30901D7
:101C80005FEA010924D0EA884B46696901F03CFB10
:101C90001EE0B0F85030062202EBC1015A1808EBE2
:101CA0004201415AC1F309015FEA010904D06A897E
:101CB0004B46696901F028FB2878226832F8201029
:101CC00048F68F73194048F2C003194322F82010D8
:101CD000E8694844E861686900EB09026A61AB6938
:101CE00013B12869484504D929782046FEF7A6FC97
:101CF00003E029782046FEF72EFD380621D521681D
:101D000004EB461031F8262002EA0B0242F40042AE
:101D100021F826202168B1F8505010F8282F0AEB3E
:101D2000C2022A4408EB4202895AC1F30901C16187
:101D300042690A44426101788369204653B1FEF743
:101D400056FD2068B0F8441009043FF5AFAE0020FE
:101D5000BDE8F09FFEF76BFCF3E7704738B50B4624
:101D6000009204460022802100F008F8002804D0E8
:101D7000606D40F020006065032038BD2DE9F04122
:101D80001D4617460E460446DDF8188008E0681C1C
:101D900006D0FEF793FBA0EB0800A8420BD255B18A
:101DA0002068806836EA000030D00020B842EED1CA
:101DB0000020BDE8F0812068416821F0E001416029
:101DC0006068B0F5827F0BD1A068B0F5004F02D0FB
:101DD000B0F5806F04D12068016821F040010160F6
:101DE000A06AB0F5005F09D12068016821F40051B4
:101DF00001602068016841F400510160012084F80D
:101E00005100002084F850000320D2E70120CDE7E4
:101E10007047FEF759BB00002D4810B5016821F04E
:101E2000070141F00201016000682A4C206840F47B
:101E3000803020602068C0F340400028FAD0264857
:101E4000016841F480710160206A40F480302062B2
:101E5000206A20F480302062206A40F440702062C2
:101E6000206A40F400402062606820F47C1040F456
:101E7000E8106060206840F0807020602068C0F347
:101E800040600028FAD0606820F0F0006060606870
:101E900020F4E06040F480606060606820F460508E
:101EA0006060606820F0030040F0020060606068DD
:101EB00000F00C000828FAD10848FFF70BFB0020BF
:101EC000FEF71CFB606820F48000606010BD00001D
:101ED00000200240001002400070004000A24A04AE
:101EE0000D48016841F00101016041680B4A114051
:101EF000416001680A4A11400160016821F48021B3
:101F00000160416821F4FE0141604FF41F018160CE
:101F10000449C00308607047001002400000FFF849
:101F2000FFFFF6FE08ED00E00148FFF7DBB8000018
:101F3000E4010020F0B50268164B174C174D4FF026
:101F40008047984205D0B84203D0A04201D0A842B1
:101F500003D122F070064A683243984205D0B84255
:101F600003D0A04201D0A84203D122F44074CA6831
:101F700022434C6922F08002224302608A68C262D6
:101F80000A688262984201D10969016301214161B5
:101F9000F0BD0000002C014000040040000800409B
:101FA00010B5846842EA032224F47F440A432243A2
:101FB000826010BD826822F070020A4342F007017D
:101FC0008160704710B5036A046A24F0010404625A
:101FD000846924F0F00444EA021423F00A020A435C
:101FE0008461026210BD10B5036A23F0100303621E
:101FF0008369046A23F4704343EA023224F0A003A5
:1020000043EA01118261016210BD2DE9F041D0F86F
:10201000C032D0F8B822CAB101EB810400EB8404CD
:102020000025E6693EB103EB41139B6BB6FBF3F76A
:1020300003FB176323B1C2F814520020BDE8F081FE
:1020400000231A46E56100F07EFCF6E70220F5E782
:1020500070B50546D0F8B84200F07BFBC4F80C021E
:10206000D5F8B80248B1D5F8BC12D4F80402CA6851
:1020700004F503719047002070BD022070BD70B55B
:1020800004460026812100F0B7FA002501212046F0
:10209000E56200F0B1FA82212046C4F86C5100F0EC
:1020A000ABFA2564D4F8B80248B1D4F8BC0204F500
:1020B0002E7440688047206800F015FE2560304689
:1020C00070BD10B5D0E9AE4159B194F80002FF28B7
:1020D00007D08B6894F8012221469847FF2084F8A6
:1020E0000002002010BD00000A2101800048704756
:1020F0007C0000204321018000487047CC00002074
:10210000432101800048704788000020432101805E
:1021100000487047100100202DE9F04104460026D8
:10212000007C4FF40077012590B3402302228121E7
:10213000204600F061FB4023E56202220121204697
:1021400000F05AFB0823032282212046C4F86C5178
:1021500000F052FB4FF40770256400F0C5FDC4F891
:10216000B802F8B10546D4F8BC02006880470020E8
:10217000C5F81402C5F81802207CD5F8042298B1DD
:1021800040230121204600F043FB3046BDE8F081AA
:10219000FFE73B4602228121204600F02DFB3B4613
:1021A000E562CAE70126F0E73B46EAE710B5D0F85A
:1021B000B81269B1027C002AD1F8042205D040236C
:1021C000012100F025FB002010BD4FF40073F7E75C
:1021D000022010BD02460220002902D00020C2F8D1
:1021E000BC127047D0F8B802C0F804120020704743
:1021F000D0F8B802C0F81022C0F8081200207047CA
:102200002DE9FC410546D0F8B87200208DF8000099
:10221000ADF80400064608780C4610F0600121D0A5
:1022200020293BD1E288AAB10006607807D5D5F80D
:10223000BC128B6839469847E288394626E087F811
:102240000002A07987F80102E2883946284600F0AA
:102250006AF828E0D5F8BC12607800228B68214625
:10226000984720E0607820B10A2809D00B2815D1C2
:1022700010E095F89C02032810D1022201A905E084
:1022800095F89C02032809D101226946284600F0EE
:1022900064F808E095F89C02032804D021462846FB
:1022A00000F036F802263046BDE8FC8110B5D0F8C3
:1022B000B812A1B1D1F814220AB1012010BD012237
:1022C000C1F81422D1F810220263B1F8102293B29F
:1022D000D1F80822812100F036FB002010BD022039
:1022E00010BD10B5D0F8B42252689047002010BD40
:1022F000134610B50A46002100F08AFA002010BDEE
:10230000134610B50A46002100F01DFB002010BD49
:1023100010B50446802100F0FBFA2046BDE81040CD
:10232000002100F0F5BA10B50323C0F85C21C0F815
:102330009432C0F8602113460A46002100F068FA82
:10234000002010BD10B505210023C0F894121A46D4
:10235000194600F05DFA002010BD10B50223C261DD
:10236000C0F89432026213460A46002100F0EBFAEC
:10237000002010BD10B504210023C0F894121A46A5
:10238000194600F0E0FA002010BD000010B50A4622
:10239000024903A000F0E2F8004810BD74090020D3
:1023A00043444320436F6E66696700001220088033
:1023B000004870472400002010B50A46024903A0D7
:1023C00000F0CCF8004810BD7409002043444320BD
:1023D000496E7465726661636500000004200880C0
:1023E000004870472000002010B50A46024903A0AB
:1023F00000F0B4F8004810BD7409002053544D6932
:1024000063726F656C656374726F6E6963730000ED
:1024100010B50A46024903A000F0A0F8004810BD1C
:102420007409002053544D3332205669727475611B
:102430006C20436F6D506F727400000010B51A204D
:1024400008800A480168001D0468001D006808181B
:1024500009D008220649FEF7FDFE05490422103185
:102460002046FEF7F7FE0248801E10BDE8F7FF1F6A
:102470003A000020F8B504460020ADF80000488876
:102480000D46010A082948D2DFE801F04704091780
:1024900047473C45D4F8B012207C0A6819E0207CFC
:1024A00002260028D4F8B40205D0C16A68468847DD
:1024B000014646703EE0816AF8E7C0B206282CD299
:1024C000DFE800F0030A1014181CD4F8B0024268C8
:1024D00005E0694690471CE0D4F8B0028268E2B19A
:1024E000207CF6E7D4F8B002C268F8E7D4F8B0026E
:1024F0000269F4E7D4F8B0024269F0E7D4F8B00218
:102500008269ECE7207C40B9D4F8B402416B68469C
:10251000884701460EE0207C20B129462046FFF77F
:10252000F7FEF8BDD4F8B402016B6846884701464F
:1025300007204870BDF8000048B1EA8852B18242D5
:1025400000D90246ADF800202046FFF706FFE888D4
:102550000028E6D12046FFF70DFFF8BD70B5002337
:1025600000281ED00446002502E06D1CEDB2641C5C
:102570002678002EF9D1022404EB45041480127849
:10258000CA545B1C0322CA5400245B1C06E0CA54D4
:102590005B1CDAB28C54521CD3B2401C0278002A65
:1025A000F5D170BD01004FF0000004D0012901D029
:1025B000022901D0022070470120704710B580B178
:1025C000D0F8B43213B10023C0F8B43209B1C0F866
:1025D000B012012180F89C12027000F0BFF80020B8
:1025E00010BD022010BD10B5D0F8C002FEF752F8A1
:1025F000BDE81040FFF7D6BF10B5D0F8C002FEF717
:1026000025F8BDE81040FFF7CDBF2DE9F041174692
:10261000044651B1D4F8B40242691AB194F89C024C
:10262000032851D00220BDE8F081D4F8943200256F
:1026300004F11400022B03D0042B3AD0C3B33CE0C6
:10264000D0E903639E4207D9F11AC1608AB23946C4
:102650002046FFF755FE12E08068B0FBF3F103FB64
:10266000110199B9984211D3D4F8981288420DD229
:10267000002211462046FFF743FEC4F8985200237B
:102680001A461946204600F0C3F816E0D4F8B40202
:10269000C16829B194F89C02032801D120468847DB
:1026A0008021204600F034F92046FFF74BFE04E07D
:1026B000FFE78021204600F02BF994F8A0020128C2
:1026C00004D184F8A05201E0204690470020AAE7F8
:1026D00070B51546044649B1D4F8B40282691AB1FE
:1026E00094F89C02032830D0022070BDD4F89412D4
:1026F00004F5AA70032902D005291ED027E0D0E9ED
:1027000003218A420BD9531AC3600846834200D37F
:1027100003469AB229462046FFF7EAFD17E0D4F8AF
:10272000B402016929B194F89C02032801D1204622
:1027300088472046FFF71EFE09E000200146C4F846
:102740009402204600F0E4F801E020469047002083
:1027500070BDD0F8C002FDF7C9BF000010B5044637
:102760001C481D49C0F86842C4F8C0020160082135
:1027700041600221816000218161C1610162FEF737
:10278000D7F808B1FDF784FD0022D4F8C002182361
:10279000114604F53074FDF72FFF582300228021E5
:1027A0002068FDF729FFC023002281212068FDF762
:1027B00023FF4FF48873002201212068FDF71CFFDE
:1027C0004FF48073002282212068FDF715FF00205E
:1027D00010BD000008070020005C00400A06D0F889
:1027E000C00201F07F0100EB411002D590F82A00F1
:1027F000704790F82A01704710B51C461346D0F870
:10280000C0022246FDF779FFBDE81040FFF7CABEBF
:1028100010B5D0F8C002FDF79EFFBDE81040FFF7ED
:10282000C1BE70B50022044640231146FFF7E4FF05
:1028300040260125C4F864613346002280212046E9
:10284000C4F85851FFF7D8FF6662A56184F89C521E
:102850000020C4F894026060C4F8A402D4F8B8025E
:1028600028B1D4F8B40200214268204690470020E5
:1028700070BD90F89C12042903D190F89D1280F845
:102880009C120020704710B590F89C12032904D1C7
:10289000D0F8B412C96901B18847002010BD017495
:1028A0000020704710B5D0F8C002FEF7E4F8BDE88C
:1028B0001040FFF777BE70B5044600F52A70054654
:1028C00000F04AF80120C4F89402B4F8AE02C4F84B
:1028D000980294F8A80210F01F010AD001290DD027
:1028E000022910D000F08001204600F011F80020ED
:1028F00070BD2946204600F09EF8F8E7294620469C
:1029000000F0CAF9F3E72946204600F01DF9EEE78A
:1029100010B5D0F8C002FDF735FFBDE81040FFF755
:1029200041BE10B5D0F8C002FEF7C0F8BDE81040B7
:10293000FFF738BE90F89C1280F89D12042180F8B1
:102940009C120020704710B5D0F8C002FDF74FFF71
:10295000BDE81040FFF726BE0A7802704A78427040
:102960008A78CB7802EB032242800A794B7902EB1A
:10297000032282808A79C97902EB0121C1807047E4
:102980000246002011B1C2F8B4127047022070470D
:1029900010B5D0F8B42202241AB11268904700B9D9
:1029A0000024204610BD000070B50E461E4D8978EB
:1029B00004462970012931D894F89C0202280BD0D2
:1029C00003280FD031462046FFF7A2FC2978204685
:1029D000BDE87040FFF785BCD9B10320616084F881
:1029E0009C0209E071B16068884212D0C1B22046F1
:1029F000FFF777FC297861602046FFF7C9FF0228BE
:102A00000CD006E0022084F89C0220466160FFF7AB
:102A100068FC2046BDE87040FFF7ACBC314620465C
:102A2000BDE87040FFF774BC7800002010B5FFF7D8
:102A300078FF002010BD2DE9F0410A78002612F041
:102A4000600208D0202A01D0402A70D1D0F8B422E8
:102A5000926890476DE04B78002201250A2B66D2E0
:102A6000DFE803F0405D6557650805652C29FFF731
:102A700001FD5EE004468888D8B9C888C8B948888E
:102A8000802816D200F07F0794F89C02032810D00B
:102A900084F89E7239462046FFF704FF2046FFF770
:102AA00069FC1FB1022084F89C0242E084F89C5229
:102AB0003FE020463BE0FFF777FF3AE0CB88012B71
:102AC00035D190F89C32012B04D0022B02D0032B7D
:102AD0002DD104E08260012200F1080116E00122FC
:102AE000011D13E090F89C22012A03D0022A01D094
:102AF000032A1CD1CA88022A19D1C560D0F8A412B1
:102B000009B10321C160022200F10C01FFF725FC8D
:102B10000FE0498801290CD1C0F8A45211E090F8C7
:102B20009C32012B08D0022B06D0032B04D0FFF7D8
:102B3000EFFB3046BDE8F08149880129F9D1C0F8A2
:102B4000A422FFF717FCF4E72DE9F0410A460446FA
:102B500010780027097910F060030AD0202B01D0EB
:102B6000402B50D1D4F8B4021146836820469847D0
:102B70008FE0C0F34110012806D05078D0B301286F
:102B80002AD003283FD107E0D4F8B4021146836865
:102B90002046BDE8F041184794F89C02022802D074
:102BA000032872D10AE071B380296ED02046FFF766
:102BB000AFFE80212046FFF7ABFE6AE0508838B9AF
:102BC00031B1802904D0D08810B92046FFF7A0FE8B
:102BD0002046FFF7CFFB5CE094F89C020228E2D08D
:102BE000032852D1508898BB4806F1D02046FFF701
:102BF000FAFCEDE7FFE794F89C020026022803D0D8
:102C0000032842D112E040E009B180293DD10806F5
:102C100001F07F0000EB800004EB800101D514314E
:102C200001E001F5AA7102220E602AE0080601F017
:102C30000F0000EB800004EB80000AD5806920B310
:102C400001F07F0000EB800004EB800514350BE001
:102C50001FE0D0F85801C0B101F07F0000EB800008
:102C600004EB800505F5AA7541B1802906D0204600
:102C7000FFF7B4FD10B10120286000E02E600222B1
:102C800029462046FFF769FB03E011462046FFF77F
:102C90003FFB3846BDE8F08170B5054608780C4624
:102CA00010F0600003D0202801D0402816D195F8FC
:102CB0009C02012803D0022801D003280ED12079DC
:102CC00001280BD8D5F8B402826828469047E188DD
:102CD000014306D12846FFF74DFB02E02846FFF7E7
:102CE00017FB002070BD704700487047E8040020C3
:102CF0002DE9F0470C784FF0000C30F8243048F6FE
:102D00008F121340CA78002A7DD0012A7CD0022A73
:102D100003D0032A79D04FF0010C48F2800213430C
:102D200020F824300D7830F8254048F68F731C4089
:102D30002C43144320F825400F7B48F6BF744BF614
:102D40008F7948F2C0054CF28006EFB391F800800D
:102D5000C24630F8287048F280181F4047EA08073A
:102D600020F82A70B0F8507091F80080074407EB03
:102D70000817B1F8088028F00108A7F80084B0F817
:102D8000507091F80080074407EB0817B1F80A80EB
:102D900028F00108A7F808844F7891F80080002FE8
:102DA00030F828704FEA47477ED0002F05DA30F818
:102DB00028701F40374320F828700F7830F827809C
:102DC0005FEA486809D500E033E030F8278008EA78
:102DD000030848EA050820F827800F7830F82750C4
:102DE0001D40354320F82750CB780D78012B30F863
:102DF000253003EA040301D083F02003134320F8B5
:102E000025300B7802E00BE010E00CE030F82310E6
:102E100001EA0901114320F823106046BDE8F0875C
:102E200043F4007379E743F4C06376E743F48063C7
:102E300073E74F7827B3B0F850600F78064406EB7D
:102E40000716CF8827F00107A6F800740F7830F82E
:102E50002760760605D530F827601E402E4320F8FF
:102E60002760CB78012B06D00B7830F82310214057
:102E700081F02001CEE70B7830F823102140C9E71C
:102E8000B0F850400D78044404EB0514CD8825F0CB
:102E90000105A4F80854B0F850400D78044404EB40
:102EA000051404F20C4400E030E00D6955B13E2DEC
:102EB00010D86F08ED0700D07F1C4FF6FF7505EAAC
:102EC00087250FE0258825F4F8452580258845F4D9
:102ED000004507E06F09ED0600D17F1E4FF4004565
:102EE00045EA872525800D7830F82540640405D50E
:102EF00030F825401C40344320F825400B7830F84A
:102F0000231001EA090181F4405183E7002F05DA1B
:102F100030F828701F40374320F828700E7830F8BA
:102F200026707F0605D530F826701F402F4320F805
:102F300026700F7830F827601E402E4320F8276057
:102F40000D7830F8253003EA090383F44053134326
:102F500020F825308FE7002070472DE9F04391F8E5
:102F60000C804F780A7848F6BF7C4BF68F7948F290
:102F7000800348F2C0054CF2800648F68F74B8F121
:102F8000000F28D0002F30F822704FEA474748D072
:102F9000002F05DA30F822702740374320F82270DE
:102FA0000A7830F822707F0605D530F82270274065
:102FB0002F4320F822700D7830F82520224032432C
:102FC00020F825200C7830F8242002EA0C021A435D
:102FD00020F824201AE07FB130F82260760605D56B
:102FE00030F8226026402E4320F822600A7830F81C
:102FF000221001EA0C010EE030F822506D0405D5D4
:1030000030F822502540354320F822500A7830F815
:10301000221001EA0901194320F822100020BDE81E
:10302000F083002F05DA30F822702740374320F86C
:1030300022700A7830F82260760605D530F82260D2
:1030400026402E4320F822600E7830F826202240B9
:103050002A4320F826200C7830F8242002EA0902BE
:103060001A4320F82420C1E7002070470020704751
:1030700000B50121A0F840100021A0F84010A0F8F0
:103080004410A0F8501000F02EF9002000BD30F8D8
:10309000401F21F43F41018000207047002070470D
:1030A00030B50A7BB2BB4A7848F68F7548F2800487
:1030B000C2B10B7830F82320520607D530F8232010
:1030C0002A4048F2C0052A4320F82320CA78012A62
:1030D00020D00A7830F8221048F6BF73194081F0EA
:1030E000200114E00A7830F822305B0407D530F86C
:1030F00022302B404CF280052B4320F822300A78F6
:1031000030F822104BF68F73194081F4405121435F
:1031100020F82210002030BD10B54A780978002A26
:1031200048F2800330F8212005D048F6BF742240D1
:1031300082F0100204E04BF68F74224082F4805239
:103140001A4320F82120002010BDF0B50E46054698
:1031500091F801C00022097B3469B06948F2800708
:10316000BCF1010F04D0A0424FD9001BB0614EE06A
:10317000A04202D9001BB06101E00446B26169B10E
:10318000307835F820104906B5F85010294401EB85
:10319000001012D5A0F80C44728911E0A3B2F28895
:1031A0002846716900F0CEF8B5F85000317828440F
:1031B00000EB0110A0F804441EE0A0F8044432899A
:1031C000A3B22846716900F0BDF8707848F68F7197
:1031D00010B1012807D00FE0327835F822000840FE
:1031E00048F2C00105E0327835F8220008404CF280
:1031F0008001084325F82200317835F8210048F68F
:10320000BF72104080F0300068E00446B2614FF6B3
:10321000FF724FF4004381B3BCF1000F15D027E0DB
:10322000018821F4F8410180018841F400410AE05D
:103230003E2C3ED86108E30700D0491C02EA8121F8
:1032400001E043EA8121018040E0B5F85000317887
:10325000284400EB011000F204407CB13E2C15D84C
:1032600061085FEAC47C00D0491C02EA8121018028
:10327000707810B1012821D028E00FE0018821F4F6
:10328000F8410180018841F40041F0E761095FEAFB
:10329000C46C00D1491E43EA8121E8E7B5F850002B
:1032A0003178284400EB011000F20C40002CBFD113
:1032B000B6E76109E206C4D1491EC2E7B5F850106D
:1032C0004819317800EB0110A0F80C44317835F83A
:1032D00021004BF68F72104080F44050384325F89F
:1032E00021000020F0BD30F8401F41F43F41018033
:1032F000002070470148FDF78FBA00000807002042
:10330000B0F844007047000010B500EB42005C08C4
:1033100000F5806009D000BF30F8042B01F8012BC4
:10332000120A01F8012B641EF6D1DA0701D00088D9
:10333000087010BD0020704711B98021A0F84C1012
:103340000020704710B55B1C00EB42005B0800F5E5
:10335000806009D011F8012B11F8014B42EA0422D8
:1033600020F8042B5B1EF5D110BDFEE70907090EFE
:10337000002804DB00F1E02080F80014704700F022
:103380000F0000F1E02080F8141D704702E008C82B
:10339000121F08C1002AFAD170477047002001E0CF
:1033A00001C1121F002AFBD170470000FDF794F8FD
:1033B000FEF732FDFEF794F8FEF7D0F8FEF754F969
:1033C000FEF71EF9FEF7F8F8C820FCF763FFFEF7DA
:1033D0000DFB074C002520780028FCD00548FEF79F
:1033E00089F921780348FCF727FF2570F3E70000EF
:1033F00000000020740B002018340008000000209A
:103400008C01000090010008DC3400088C010020D1
:103410006C1200009C3300084113AD231B08DD042F
:103420001AE9041311241B083D041A8D0C1AB9045F
:103430001704030904120114020202164083044017
:1034400057260201020301031A1A0313F1011B0894
:10345000ED041AE9041315021508B3B40119331168
:1034600082105324F4130A0632022A401C1C09025B
:10347000435B1125C03209041B01020B1305241DF7
:10348000100105243B10080424020205240617013C
:1034900007058203081C10090491320A1D07050163
:1034A00002432C070581070938442A40072A81076F
:1034B000112B0907440A3B044413192114087F20E7
:1034C0001408012242081AC30C1A0B041A5104C131
:0C34D0001A01281AF5141A0D081AE90850
:04000005080000ED02
:00000001FF
